:020000040000FA
:10000000F8630020310200003902000019180000D6
:100010003D0200003F02000041020000000000001D
:10002000000000000000000000000000430200008B
:10003000450200000000000047020000F1D7000068
:10004000E93900004B02000065DE000005C3000036
:1000500059C300004B020000A10F000075BF000053
:100060004B0200004B0200004B0200004B0200005C
:100070004B020000A94800004B0200004B020000A8
:1000800061E20000D14800004B0200004B0200007A
:1000900069C300004B0200004B0200004B0200004D
:1000A0004B0200004B0200004B0200004B0200001C
:1000B0004B0200004B0200000000000000000000A6
:1000C0004B0200004B0200004B0200004B020000FC
:1000D0004B0200004B0200004B0200000000000039
:1000E0000000000000000000000000000000000010
:1000F0000000000000000000000000000000000000
:1001000000000000000000000000000000000000EF
:1001100000000000000000000000000000000000DF
:1001200000000000000000000000000000000000CF
:1001300000000000000000000000000000000000BF
:1001400000000000000000000000000000000000AF
:10015000000000000000000000000000000000009F
:10016000000000000000000000000000000000008F
:10017000000000000000000000000000000000007F
:10018000000000000000000000000000000000006F
:10019000000000000000000000000000000000005F
:1001A000000000000000000000000000000000004F
:1001B000000000000000000000000000000000003F
:1001C000000000000000000000000000000000002F
:1001D000000000000000000000000000000000001F
:1001E000000000000000000000000000000000000F
:1001F00000000000000000000000000000000000FF
:10020000DFF80CD000F032FB004800472501010068
:10021000F863002000B583B002900091019244F28F
:10022000010071466A460FF0EDFA03B000BD000010
:100230000648804706480047FEE7FEE7FEE7FEE780
:10024000FEE7FEE7FEE7FEE7FEE7FEE7C9D80000AF
:10025000010200002DE9F05F0546002092469B4612
:1002600088460646814640241BE0284641464746CC
:10027000224600F04DFA53465A46C01A914110D317
:1002800011461846224600F034FA2D1A67EB010891
:100290004F4622460120002100F02BFA17EB0009FF
:1002A0004E41201EA4F10104DFDC484631462A46B7
:1002B0004346BDE8F09F40EA01039B0703D009E0F5
:1002C00008C9121F08C0042AFAD203E011F8013B42
:1002D00000F8013B521EF9D27047D2B201E000F89B
:1002E000012B491EFBD270470022F6E710B51346DA
:1002F0000A4604461946FFF7F0FF204610BD0346A4
:1003000011F8012B00F8012B002AF9D1184670478B
:100310002DE9FE4F804681EA0300C00F0C46009095
:1003200021F0004123F00045B8EB0200A94105D2BD
:100330004046214690461C460B46024623F00040AC
:10034000104347D0270DC7F30A00C3F30A510290A8
:10035000401A019040286BDAC3F3130040F4801B6D
:100360000098924620B10023D2EB030A63EB0B0BFB
:1003700001985946C0F14002504600F0BAF90646CD
:100380000D4650465946019A00F0D2F910EB08008C
:100390006141002487EA115284EAE7731A4340D08E
:1003A000009A62B3019A012A4FEA075215DC001B3A
:1003B00061EB02014FF0004202EA0752CDE9004230
:1003C000001C41F5801132462B4600F0D2F903B0F3
:1003D000BDE8F08F40462146F9E7001B61EB0201C2
:1003E000001C41F5801300185B412018A2F500178E
:1003F00047EB030140EAD570B6196D4111E06D0875
:100400004FEA360645EAC0754FEA0752001B61EB1A
:100410000201001C41F5801149084FEA3000001923
:10042000514132462B4603B0BDE8F04F00F092B97F
:100430000098012240000023D0EB020263EBE0733E
:10044000009821464FEAE074B8EB000061EB04012C
:10045000E9E783F000435BE781F0004158E72DE9CD
:10046000FE4F81EA030404F0004421F000410094AF
:100470004FF0000B23F0004350EA01045ED052EA33
:1004800003045BD0C3F30A54C1F30A552C44A4F20D
:10049000F3340194A0FB0254C1F3130141F4801121
:1004A000C3F3130343F4801301FB024400FB034E28
:1004B000840A970A44EA815447EA8357A4FB0768F1
:1004C00002958D0A05FB07854FEA932C04FB0C541B
:1004D0002705029D4FEA065847EA1637B5EB08058F
:1004E0006EEB070C870E920E47EA811742EA8312E1
:1004F000A7FB0201B6EB0B0164EB00042B0D43EAF2
:100500000C335E1844EB1C50DA465146E7FB0201FF
:10051000C5F313044FEA0B3343EA14534FEA043292
:10052000019C43EA0603A4F10C040294009CCDE96B
:1005300000B400F01EF903B0BDE8F08F00200146C2
:10054000F9E72DE9F04D81EA030404F0004B21F0B6
:10055000004514464FF0000A23F0004150EA05021E
:1005600020D054EA01021DD0C5F30A570246C5F354
:100570001303C1F31300C1F30A5640F4801543F48A
:100580008013A7EB0608101BD64608F2FD3873EB64
:10059000050002D308F1010801E092185B41B8F1AF
:1005A000000F03DA00200146BDE8F08D00204FF473
:1005B0008011064684460EE0171B73EB050705D332
:1005C000121B63EB050306434CEA010C49084FEA92
:1005D000300092185B4150EA0107EDD152EA030066
:1005E00012D082EA040083EA0501084305D0101BFB
:1005F000AB4106D20122002306E000224FF0004367
:1006000002E06FF0010253101AEB06004CEB0851A8
:1006100010EB0A0041EB0B01BDE8F04D00F09AB879
:100620000EB5C10F80EAE0700844CA07002140F20D
:1006300033438DE80E000A460B4600F09AF803B0EB
:1006400000BD0EB540F2334102910021CDE9001109
:100650000A460B4600F08DF803B000BD70B5C1F33B
:100660000A5201F000450024C1F3130140F2FF33A8
:1006700041F480119A4201DA002070BD40F2334308
:100680009A42A2F2334203DC524200F041F800E009
:1006900090402C43F1D0404270BDC1F30A5210B5D6
:1006A000C1F3130140F2FF3341F480119A4201DAA1
:1006B000002010BD40F233439A42A2F2334203DCE1
:1006C000524200F025F810BD904010BD00F00042ED
:1006D00030F000400AD0C10D01F56071C0F3160082
:1006E00042EA0151C2084007114370470020014609
:1006F0007047202A04DB203A00FA02F100207047FC
:100700009140C2F1200320FA03F31943904070474F
:10071000202A04DB203A21FA02F00021704721FA56
:1007200002F3D040C2F120029140084319467047BD
:10073000202A06DBCB17203A41FA02F043EAE073A5
:1007400006E041FA02F3D040C2F120029140084392
:100750001946704710B5141E73F1000408DA401CE6
:1007600041F1000192185B411A4301D120F00100D0
:1007700010BD2DE9F04D92469B4611B1B1FA81F2C0
:1007800002E0B0FA80F220329046FFF7B2FF044652
:100790000F4640EA0A0041EA0B0153465A46084315
:1007A00013D0114653EA010019D0C8F14002504657
:1007B000FFF7AEFF05460E46504659464246FFF744
:1007C00098FF084305D0012004E020463946BDE8E3
:1007D000F08D0020054346EAE0762C4337430A9823
:1007E0006305E40AA0EB08000022FD0A44EA47542E
:1007F0000A3002D500200146E9E7010510196941D8
:10080000DDE9084500196941BDE8F04DA2E770B582
:1008100021F0004303430CD0C1F30A550024D5EB6B
:10082000040564EB0403D617AD1AB34102DB0020C4
:10083000014670BD201841EB025170BD30B5041E59
:1008400071F1000404DB4FF00044404264EB01010D
:10085000141E73F1000405DB1C464FF000435242A6
:1008600063EB0403994208BF904230BD064C074D2C
:1008700006E0E06840F0010394E807009847103470
:10088000AC42F6D3FFF7C0FCA41F0100C41F010057
:100890002DE9F04D00231A461B1A8A4103DB002084
:1008A0000146BDE8F08DC1F30A52C1F3130141F4D2
:1008B00080154FF0000BD10702D100186D41521E78
:1008C0000027044640F2FF11384601EB620A3E461B
:1008D0008046024600204FF48011FFF719FFC2192D
:1008E0007141BB1846EB0100B4EB030C75EB000C37
:1008F00004D3E41A65EB000517460E46241908F1E7
:1009000001006D4180463428E3DDF91946EB06000D
:10091000091BA84103D24FF0FF32134601E0002229
:1009200013461BEB070046EB0A51BDE8F04DFFF7FD
:1009300011BF70B58C1810F8015B15F0070301D1D9
:1009400010F8013B2A1106D110F8012B03E010F832
:10095000016B01F8016B5B1EF9D12B0705D4002355
:10096000521E0DD401F8013BFAE710F8013BCB1AF7
:10097000921C03E013F8015B01F8015B521EF9D5EC
:10098000A142D8D3002070BD70B588B00C46054692
:100990001022002168460FF015FC694622460846E1
:1009A0000EF090FE9DF80000694600064FF0000032
:1009B0000FD50B180A5C5B78520042EAD3120A5436
:1009C000401C0F28F5DB9DF80F00400080F08700E9
:1009D0000CE00B180A5C5B78520042EAD3120A540E
:1009E000401C0F28F5DB9DF80F0040008DF80F002C
:1009F000D4F81401102814D09DF8000000061CD56E
:100A000000200B180A5C5B78520042EAD3120A54A9
:100A1000401C0F28F5DB9DF80F00400080F0870098
:100A200019E0002022180E5C92F80131401C73403E
:100A300082F801311028F5DB2AE000228B18885C4F
:100A40005B78400040EAD3108854521C0F2AF5DB33
:100A50009DF80F0040008DF80F00D4F8146104F2E7
:100A600001128023B354002300E08354D4F814010E
:100A7000401CC4F814011028F7D3002022180E5C83
:100A800092F80131401C734082F801311028F5DBE7
:100A900000202118401C11F8F12F0B7C5A400A70DD
:100AA0001028F6DB102204F1F10104A80FF074FB0A
:100AB0002246294604A80EF005FE102200216846B1
:100AC0000FF080FB08B070BD10B504461022002165
:100AD000F1300FF077FB00200146C4F814012046E6
:100AE000BDE81040F0220FF06DBB0B46024610210E
:100AF00018460EF00FBE2DE9FF470446D0F814014A
:100B00000F46154604F2011804F1F10968B3C0F16B
:100B10001006AE4200D31646B2B2404439460FF03A
:100B20003BFBD4F814013044C4F81401102841D31D
:100B3000B5423FD000202118401C11F8F12F0B7C4A
:100B40005A400A701028F6DB1022494668460FF01A
:100B500023FB6946224608460EF0B4FD1022694682
:100B600048460FF019FB3744AD1B1AE0002021184E
:100B70003B5C11F8F12F401C5A400A701028F6DB3C
:100B80001022494668460FF007FB69462246084690
:100B90000EF098FD1022694648460FF0FDFA103D10
:100BA0001037102DE2D8AAB2394640460FF0F4FAB9
:100BB000C4F81451BDE8FF871CB5114C94F81A0411
:100BC00094F81914884219D2401C84F81A04C007FA
:100BD00014D021208DF80000D4F88C0490F838113E
:100BE0008DF8021090F805118DF801100078694613
:100BF00008F0E0FAD4F88C1481F805011CBD00005F
:100C00007020002001480EF0B5BE00005800002002
:100C1000014800780EF0B0BE580000200020704758
:100C200070472DE9FF4F8B4685B090F9105090F931
:100C3000118081680446196040790027994601288F
:100C400047D14FF0020A8DF800A0A07C8DF8020079
:100C5000E07C694608F0AEFA46B2B54200DC3546A3
:100C6000B54203D10021C9F8001032E0A089A16883
:100C7000814200D30127E2891044884229D8082004
:100C80008DF80000E07C694608F094FA4FFA80F88D
:100C9000E189A068B0FBF1F201FB1200012818D134
:100CA00021208DF800008DF80150A07C8DF8020005
:100CB000E07C694608F07EFA45B2B54209D1207958
:100CC0000027012805D18DF80CA0E07C02A908F0CE
:100CD0004CFF8BF800500799384681F8008009B026
:100CE000BDE8F08F0449D1F84813002903D0896882
:100CF000002900D008477047702000202DE9F041FE
:100D0000CCB01C46529E90460F0005460AD04EB10C
:100D10006846FFF7D9FE4BA9204600F01BFB0400F4
:100D200004D01EE002204CB0BDE8F0814B9968462B
:100D3000491CFFF7DAFE25B1102229466846FFF765
:100D4000DAFE424639466846FFF7D5FE694646A8B0
:100D5000FFF71AFE9DF81801DDF8191140EA01208D
:100D600030602046DFE700002DE9FE4306004FF02B
:100D70000000254D019002908DF8000095F89843F1
:100D800040D04FF0010980466008E10705EB4000C4
:100D900031D0B0F88003000A0DF1040C6A468DF8DA
:100DA000008000214FEA090303FA01F7074205D04A
:100DB00017780CF8071017787F1C1770491CC9B2F8
:100DC0000829F1D39DF8001041B10020491E0FF011
:100DD00053FE01A9085C00EBC4003070641CE4B24F
:100DE000072C00D900249DF8000038B185F89843FD
:100DF0000020BDE8FE8390F88003CDE795F89803C6
:100E0000A042C1D10320F4E7BC36002038B5234C02
:100E1000D4F88C0490F9253190F9052190F8391116
:100E2000007805F051FC41B204F570700090D4F8E0
:100E30008C0490F80C21D0F80831007806F0C3FF3C
:100E400004F575700090D4F88C0490F80C2190F99A
:100E50002C11D0F80831007806F0B5FFD4F88C04D6
:100E6000D4F8CC13D0F814210A44C4F8B823D0F82D
:100E70001831D4F8E0231344C4F8BC3390F8E031BF
:100E8000002B09D1D0F81C311944C4F8B813D0F89C
:100E900020011044C4F8BC0338BD000070200020BD
:100EA000AFF300802DE9F041040007D0044E4FF469
:100EB0007A47751C3846A847641EFAD1BDE8F08110
:100EC000D01101002DE9FF411E461746054691B19C
:100ED0008FB186B100200090019002900390042D04
:100EE0000BD0052D09D0062D07D0072D07D00B20DC
:100EF00004B0BDE8F0810A20FAE7012000E00220FA
:100F00008DF800006C460322601C0FF045F90322A7
:100F10003946201D0FF040F902223146E01D0FF046
:100F20003BF906482B4601220068694600680CF030
:100F3000C5F80028DCD00F20DAE700008800002088
:100F400040B139B1027B130706D090F820301BB1B5
:100F500000200EE00320704790F828301BB11207E4
:100F600003D017207047012003E090F8200018B14B
:100F700003200870002070470220FAE7704770478E
:100F80000520FFF7AFBE0420FFF7ACBE0620FFF739
:100F9000A9BE0220FFF7A6BE0320FFF7A3BE0000F4
:100FA0002DE9F8430025DFF894804FF48076012482
:100FB0002F46009530460FF03DFB38B1D8F80403BA
:100FC000204203D030460FF02BFB2543361D640032
:100FD0007F1CB6B2082FEDD34FF4BE7420460FF03D
:100FE00029FB48B120460FF01BFB45F000456A463F
:100FF000012100200FF0DAFA15F0FF0F16D00126BC
:1010000000242E420ED008EB8401D1F81005D1F84F
:101010001015C0F304200A4AC1F3014152F82420FC
:1010200002B190477600641C082CEAD3002D02DA46
:1010300068460FF0A9FCBDE8F8830000006000409E
:1010400034030020094951F8200000F57760B0F51D
:10105000783006D000F57760B0F5783F03D00020F7
:1010600070470120704702207047000010120100F5
:10107000094951F8200000F57760B0F5783006D0C6
:1010800000F57760B0F5783F03D00020704701206D
:10109000704702207047000084120100094951F88E
:1010A000200000F57760B0F5783006D000F5776065
:1010B000B0F5783F03D00020704701207047022030
:1010C000704700002C130100094951F8200000F579
:1010D0007760B0F5783006D000F57760B0F5783FEE
:1010E00003D00020704701207047022070470000A5
:1010F00068130100094951F8200000F57760B0F548
:10110000783006D000F57760B0F5783F03D0002046
:10111000704701207047022070470000F41301005F
:10112000094951F8200000F57760B0F5783006D015
:1011300000F57760B0F5783F03D0002070470120BC
:10114000704702207047000080140100094951F8DF
:10115000200000F57760B0F5783006D000F57760B4
:10116000B0F5783F03D0002070470120704702207F
:101170007047000078150100094951F8200000F57A
:101180007760B0F5783006D000F57760B0F5783F3D
:1011900003D00020704701207047022070470000F4
:1011A00000160100094951F8200000F57760B0F5FC
:1011B000783006D000F57760B0F5783F03D0002096
:1011C000704701207047022070470000841601001C
:1011D000094951F8200000F57760B0F5783006D065
:1011E00000F57760B0F5783F03D00020704701200C
:1011F0007047022070470000F816010038B5174804
:1012000000F5F47420604FF4F470606004F1140091
:1012100000F052FE206100200090A4F27C6069463C
:10122000D0F88C04007807F09CFFA0600098E06084
:1012300004F11C000BF068FFA06104F1240000F031
:10124000F9FB206204F12C0000F070FBA06204F1B5
:10125000340000F0EDFC2063204638BD042500205A
:1012600030B50D4604461946104606F0A4FC248805
:101270003DB91946104606F09EFC844200D920462E
:10128000044604B90124204630BD00002DE9F04198
:101290000C4F06460D463869007D00F0E5FA70B93E
:1012A000002408E02878B042284609D000F0D0FA9F
:1012B000641C0546E4B23869007DA042F2D80020E3
:1012C000BDE8F08148280020F0B4DDE90545049E22
:1012D00042B13CB135B1052823D2DFE800F0131547
:1012E000171906000A20F0BC7047C3F30740012815
:1012F00001D003200DE019B1032901D0012008E03D
:10130000022006E0042004E0052002E0062000E0C0
:1013100007202070D2892B463146F0BCC0B200F0C5
:1013200087BD0520DFE7000010B5094B002200BF94
:1013300013F82240844204D103EB820008600020AD
:1013400010BD521CD2B2052AF2D30C2010BD0000F1
:101350009000002010B50B4B002200BF02EB0214DE
:101360001C44247D844206D102EB02101844143040
:101370000860002010BD521CD2B2172AEED3032001
:1013800010BD0000AC00002049B1144A08281268C2
:1013900021D2DFE800F020060B1116181C1E0A20CF
:1013A00070471069086002F1100003E0506908609E
:1013B00002F11400D06208E09069086002F11800A0
:1013C000F8E7D06900E0106A086000207047506AB2
:1013D000FAE7906AF8E705207047000088000020CF
:1013E0001CB50949D1F88C1491F838218DF80220E8
:1013F0008DF801000D208DF800000878694607F08F
:10140000D9FEC0B21CBD00007020002003498842F4
:1014100001D30E2070470A20704700002021F636C5
:10142000884201D1C8B201E0401EC0B240B270474C
:10143000884201D1C8B203E0082803D0401EC0B2E0
:1014400040B270470620FBE77FB5054612480E46BE
:1014500044572846FFF7F6FD0146F0B2002201236B
:101460000E4E072D0AD0082500950393CDE90120E3
:10147000756A22461846A84704B070BD0525009538
:101480000393CDE901204FF47A7014FB00F200239E
:10149000746A1846A047EFE7F0110100701A0100C6
:1014A0007FB50D460A490C56FFF7E2FD0146E8B24A
:1014B000012200250823CDE90202CDE900350548C7
:1014C00013462246456A0120A84704B070BD0000BB
:1014D00074120100701A01007FB50D460A490C56BE
:1014E000FFF7DCFD0146E8B2012200250823CDE923
:1014F0000202CDE90035054813462246456A01201F
:10150000A84704B070BD000020130100701A01004C
:101510007FB5054612480E4644572846FFF7D4FDCE
:101520000146F0B2002201230E4E072D0AD00825F5
:1015300000950393CDE90120756A22461846A84715
:1015400004B070BD052500950393CDE901204FF44B
:101550007A7014FB00F20023746A1846A047EFE784
:1015600058130100701A01007FB5054612480E4657
:1015700044572846FFF7BEFD0146F0B20022012382
:101580000E4E072D0AD0082500950393CDE90120C2
:10159000756A22461846A84704B070BD0525009517
:1015A0000393CDE901204FF47A7014FB00F200237D
:1015B000746A1846A047EFE7E4130100701A0100AF
:1015C0007FB5054612480E4644572846FFF7A8FD4A
:1015D0000146F0B2002201230E4E072D0AD0082545
:1015E00000950393CDE90120756A22461846A84765
:1015F00004B070BD052500950393CDE901204FF49B
:101600007A7014FB00F20023746A1846A047EFE7D3
:1016100070140100701A01007FB5054612480E468D
:1016200044572846FFF792FD0146F0B200220123FD
:101630000E4E072D0AD0082500950393CDE9012011
:10164000756A22461846A84704B070BD0525009566
:101650000393CDE901204FF47A7014FB00F20023CC
:10166000746A1846A047EFE760150100701A010080
:101670007FB50D460A490C56FFF77EFD0146E8B2DC
:10168000012200250823CDE90202CDE900350548F5
:1016900013462246456A0120A84704B070BD0000E9
:1016A000F4150100701A01007FB5054612480E4678
:1016B00044572846FFF776FD0146F0B20022012389
:1016C0000E4E072D0AD0082500950393CDE9012081
:1016D000756A22461846A84704B070BD05250095D6
:1016E0000393CDE901204FF47A7014FB00F200233C
:1016F000746A1846A047EFE774160100701A0100DB
:101700007FB50D460A490C56FFF762FD0146E8B267
:10171000012200250823CDE90202CDE90035054864
:1017200013462246456A0120A84704B070BD000058
:10173000E8160100701A01002DE9F041334C06460D
:101740000027D4F88C040D4690F8FC00022802D043
:101750002F48C06A804700F0F1F830B1022000F055
:1017600004F9002000F0DFF80127D4F88C0490F889
:10177000FC00012816D100F0E7F848B1002000F085
:10178000F7F8002000F0EAF800F0DCF818B939E0CA
:1017900000F0D8F830B1002000F0E8F8002000F0A8
:1017A000D9F82FE077BB94F88804002894F81C043B
:1017B00002D0012815D016E0012801D184F8456433
:1017C000304600F0E1FAD4F88C04D0F8CC010CF0EB
:1017D00058FAD4F8BC13884214D30E480CF010FB0E
:1017E0000AE084F84554284600F0CEFAD4F88C0478
:1017F00090F8FC00022805D094F8890440F02000FD
:1018000084F88904BDE8F0410CF050BB7020002042
:10181000701A01001024002010B505A100200AF064
:1018200095FCBDE8104007A20B210848FEF7F2BC6A
:10183000486172644661756C745F48616E646C6582
:10184000720D0A006D61696E2E630000EFBEADDEA1
:101850000449096901F11002824201D1084670472A
:10186000001D70474828002008B100207047012063
:101870007047052801D301207047002070470528D4
:1018800007D0082805D0092803D00A2801D0002055
:10189000704701207047884200DC08467047884244
:1018A00000DC08467047884200DC084670478842E2
:1018B00000DC08467047884200DC084670478842D2
:1018C00000DC08467047884200DC084670478842C2
:1018D00000DC08467047884200DC0846704770B557
:1018E0000446884200DD01460D46042A0CD004223D
:1018F0000021184606F0E8F8322803D2052C00DC57
:1019000005242546284670BD022CFADC0224F8E79F
:1019100030B4847814B130BC0020704730BCFFF77D
:1019200080B9002070477047704770470021016000
:101930000846704770477047002070470020704786
:10194000002070470020704700207047002070473B
:1019500002207047704700207047704770477047FB
:1019600001207047704700207047704770477047EC
:1019700070477047022070472DE9F0411646074630
:1019800081B100201C4D034605EB001400220834F1
:1019900014F802C0BCF1000F07D0401CC0B20F28E1
:1019A000F2D10EE00120BDE8F081521C92B2102A63
:1019B000EED305EB0014083403D00F48026812B1CF
:1019C00002E00220EFE70460426802B11460236085
:1019D00044602771B2B2601DA6600EF0DDFB384690
:1019E000FFF74DFF207355F8F80F761C3044286040
:1019F00001F0A4FE0020D6E7342700200146002095
:101A0000891E12290BD2DFE801F009110B110F0D0D
:101A10000B0B110A0A0D0A0A0F111313032070474A
:101A2000022070470620704701207047052070474C
:101A300004207047FC2101600048704734270020D3
:101A400028B10449D1F8F810016000207047012046
:101A5000704700003427002010B50446FC22002106
:101A600005480EF0AFFB04490020086048600348B9
:101A70000460002010BD00003427002084000020F6
:101A800070B528B1164A11680B46884203D107E0A9
:101A9000012070BD214621B10C688442FAD100E0DA
:101AA0000021834201D1036813605468844200D14D
:101AB000516009B102680A60002101600849836829
:101AC00051F8F82FD21A521E0A6038B110220021A4
:101AD0000EF078FB01F032FE002070BD052070BDD5
:101AE0003427002010B5084801E0017B31B10068BF
:101AF0000028FAD101F022FE002010BD0468FFF793
:101B0000BFFF2046F4E700003427002070B50948E5
:101B1000046808E020792568FFF7B1FE10B120467F
:101B2000FFF7AEFF2C46002CF4D101F007FE002099
:101B300070BD00003427002010B530B10146FC22F2
:101B400003480EF029FB002010BD012010BD00004D
:101B5000342700202DE9F0418046174815000E4635
:101B600004684FF0000000D0B6B90120BDE8F08154
:101B7000A168A8EB0002491C8A4215D32179295497
:101B8000401CC7B22089611D82B2E8190EF004FB27
:101B9000207A24683844C0B2002CE9D106E02046FF
:101BA0002568FFF76DFF2C46002CF8D13046FFF773
:101BB00047FF0020DAE700003427002020B1094960
:101BC00000220968027005E0012070470A7B012AA3
:101BD00004D009680029F9D1002070470121017063
:101BE000FAE700003427002070B50D4C0546206947
:101BF000007DFFF73EFE08B1002070BDA068297887
:101C0000017069784170E978C170002181702269A2
:101C1000117D491C1175FFF71BFEA060012070BDEE
:101C20004828002001480069007D704748280020AE
:101C300016210160004870473028002070B5084C1C
:101C400005462069007DFFF70FFE38B9D4E901127F
:101C50002846FFF71BFB08B1407870BD012070BD1E
:101C600048280020F8B5134D064600242869077D52
:101C70001DE068680178317041787170817831B108
:101C8000286881683046884700F044F80DE0017804
:101C90008DF8001041788DF80110C0788DF80300A0
:101CA00000F038F86846FFF79FFF641CE4B2BC42BE
:101CB000DFD3F8BD4828002070B5094C0D4600213F
:101CC0002060A4F118002061017560601422FF21DA
:101CD000A0600EF077FA216901204875E56070BDBB
:101CE00048280020044910B58A684968FFF7CEFAF1
:101CF000002800D0012010BD48280020044810B55D
:101D00000069007DFFF7B5FD002800D0012010BD5F
:101D10004828002010B5094C2069007DFFF7A4FD7C
:101D200008B1002010BD2169087D401E087560685B
:101D3000FFF78EFD6060012010BD000048280020E4
:101D400010B5002805D00146162202480EF024FAEC
:101D5000012010BD3028002070B50A4C05460E4603
:101D60002069007DFFF780FD002809D1D4E9011228
:101D70003046FFF78BFA002802D0457001218170B0
:101D800070BD0000482800202DE9F0410B4E0546AB
:101D9000306974684575007DFFF766FD00280BD13A
:101DA00001276570E07800B9A7702046FFF750FD65
:101DB0000446B068A042F4D1BDE8F0814828002074
:101DC0001FB5082802D00B2004B010BD00210091DF
:101DD000019102910391064902467F230C686946EE
:101DE00020680BF06BF90028EED00F20ECE7000024
:101DF000880000201FB510B10B2004B010BD0021D9
:101E0000009101910291039108490C68A178012980
:101E100002D120218DF8001002460823694620686F
:101E20000BF04CF90028E8D00F20E6E788000020EE
:101E3000F8B54FF000041D0017460E4600940DD073
:101E40006946FFF7A1FA00280AD10098411C08D082
:101E500081B2791A002906DD08440EE04FF00A002D
:101E6000F8BD2F600AE003D128604FF00700F8BDED
:101E70006FF30F00384400F5803028600748006891
:101E8000807848B929680098091A64EB0400891B16
:101E9000A04101DB0820F8BD0020F8BD880000202B
:101EA00030B104490968C968491C016000207047C5
:101EB0000A207047880000203021016000487047E8
:101EC0005C2800202DE9F0418EB014000F468046BA
:101ED00019D0C7B1242103A8FEF706FA00268DF811
:101EE000306020790CAA03A98DE807002C4D2368E7
:101EF00039462868828840460BF024F928B10F2023
:101F00000EB0BDE8F0810A20FAE7227903A9206823
:101F10000EF042F9204601F00CF908B11020EFE76D
:101F20000020FFF767FF0028EAD10820FFF748FFED
:101F30000028E5D12B6804F109021746A11D0720EE
:101F40001B1DFEF7BFFF0028DAD12B683A46A11D02
:101F500006201B1DFEF7B6FF0028D1D12B683A469C
:101F6000A11D04201B1DFEF7ADFF0028C8D12B6862
:101F70003A46A11D05201B1DFEF7A4FF0028BFD176
:101F800029689DF83000887028684FF0FF31816122
:101F9000C0E903614161686880470020B0E7000044
:101FA0008800002010B50C4C0A4B236080B16060A3
:101FB0003022002118460EF005F920680121C17079
:101FC000817041700021017009F048FE002010BDB1
:101FD0000248ECE75C280020880000207D0F00000C
:101FE0007CB5040013D000200190012601A80BF05D
:101FF000ECF8114D01982968888068688047286846
:102000008088E082204601F016FA98B901E00A20A3
:102010007CBD04F118000090334613220020216893
:102020000BF042F808B10F207CBD204601F003FA06
:102030000028F9D011207CBD8800002010B530B1F7
:102040000146302203480EF0A7F8002010BD0A20F8
:1020500010BD00005C2800202DE9F04788B01C006E
:1020600005464FF0070233D02A480168C968A942E3
:1020700003D9062008B0BDE8F08794F8203003B9F2
:10208000062282460020A94209D2CDE9000594F833
:102090002810A368606A01F0D3FC0028EAD120462A
:1020A00001F062F960BB20790022001F87B2D4F8EA
:1020B0000080A0684FF00609134604F12C065FEA81
:1020C000080105D026B1B7F5807F03D90E20D1E7EE
:1020D0000A20CFE70DF10C0C8DE821104946384657
:1020E00001F016FD4B463A46414603A800960AF019
:1020F000DBFF08B10F20BDE7204601F035F908B13C
:102100001120B7E7DAF80010CD60DAF80400804754
:102110000020AFE78800002010B504460BF092F8CD
:1021200040B94CB92046FFF765FE18B90820FFF703
:1021300047FE08B10F2010BD002010BD02490968FC
:1021400008600020704700008800002068B108493E
:10215000096801F11C020262121DC264121D2831BD
:102160008267C0F8A410002070470A207047000062
:10217000880000202DE9F04385B01D460C9C914657
:102180000E4607463CB10021009110466946FFF714
:10219000FBF848B903E00A2005B0BDE8F0830098D9
:1021A000854203D8401C01D00620F5E74FF0010816
:1021B000204600F05FFF08B11020EDE704A9384683
:1021C000FFF7B2F80028E7D1049847788278A06832
:1021D000B04201D00220DFE7207BC0F34013134858
:1021E0000068807800B90023E06ACDE90086CDE977
:1021F00002502079001F81B220680BF097FE002862
:10220000CAD194F8200000B90627CDE9008594F8DA
:10221000281033463A46606A01F012FC0028BBD110
:10222000294648460BF024FE0020B5E78800002030
:1022300010B51B4C88B094F88904010709D520F02B
:10224000080084F88904D4F84403C16804F26C409F
:10225000884794F88904C00610D507208DF800003F
:1022600000208DF80100D4F84403C168684688470F
:1022700094F8890420F0100084F8890494F8890403
:1022800081070BD520F0020084F88904D4F84403B8
:10229000416808B00348BDE81040084708B010BDC9
:1022A000702000209424002038B56846FEF7AAFC70
:1022B0001E480021046801606846FEF7A9FC002C56
:1022C00032D0E00601D502F073FA200701D501F003
:1022D000BFFF60071CD5164DD5F88C0490F8FC00A4
:1022E000022802D01348C06A80470BF0DFFD0220AD
:1022F00085F84504FFF748FD95F81C04012801D135
:1023000085F81B0495F8890440F0200085F88904BD
:10231000A00703D506210520FFF70EFAE00703D03A
:1023200004210320FFF708FA38BD00007C000020DC
:1023300070200020701A01007CB5364C94F8891486
:10234000C80765D0204694F84424D0F88C040025B2
:1023500022B1032A02D0012A0FD039E094F81824C0
:1023600090F824319A421FD2890731D590F8FC00A9
:10237000D0B194F83504B8B12AE094F81B24012AAE
:1023800046D1244A94F81A3494F8196492F84824EF
:10239000B34216D2890701D5012A12D05FF000019D
:1023A00090F8DE317BB199B11B480BF029FDD4F8D0
:1023B000400320F02000C4F84003BDE87C400BF04F
:1023C00073B90121ECE709B17AB11CE0FEF7F4FB27
:1023D00094F8890420F0200084F8890484F81B54C0
:1023E000BDE87C40002001F0A7BA02218DF804105E
:1023F0000A49896800910078694607F0B6FB84F8BD
:102400001C5484F8485494F81A0484F84904CBE71F
:102410007CBD000070200020E0230020EC2600207E
:1024200070B51C48A0F59064457AD4F840030028A4
:102430002FD1E90703D025F0010084F8890494F82E
:102440008904410703D520F0040084F889040120A1
:1024500084F88A04E80705D0D4F8440301680D48DD
:102460003C38884768070CD50A482838FFF7FAFB3C
:10247000FFF7D8FB28B194F8890440F0040084F8F1
:102480008904FFF76FFA94F8890420F0200084F89B
:10249000890470BDF02400202DE9F04F91B00F4663
:1024A000060090467ED0002FFCD030680028F9D07E
:1024B00070680028F6D0B0680028F3D0F0680028D3
:1024C000F0D0104607F079FB00286CD0D749304691
:1024D000FFF7F2FB4FF4F4720021D5480DF072FEC5
:1024E00040F294420021D3480DF06CFED14CD0480C
:1024F0000125C4F88C0484F81A5484F8195480F81F
:102500000080D4F88C144FF0000BCB4881F8FCB05D
:10251000D4F88C14C1F8DC010E208DF80000D4F83A
:102520008C046946007806F045FE00B10120D4F81D
:102530008C144FF00A0981F845018DF80090D4F809
:102540008C04694604F58264007806F033FEE16F7E
:102550004FF0060A08718DF800A0E06F6946007818
:1025600006F028FEE16F48710F208DF80000E06F43
:102570006946007806F01EFEE16F086110208DF8B4
:102580000000E06F6946007806F014FEE16F4861D4
:1025900011208DF80000E06F6946007806F00AFE11
:1025A000E16F01E0FBE0FEE0886112208DF80000A1
:1025B000E06F6946007806F0FDFDE16FC861132009
:1025C0008DF80000E06F6946007806F0F3FDE16FDA
:1025D000086216208DF80000E06F6946007806F06A
:1025E000E9FDE16F81F8250017208DF80000E06F0C
:1025F0006946007806F0DEFDE16F8862E16F0863EE
:1026000018208DF80000E06F6946007806F0D2FDD2
:10261000E16F81F82C00E16F81F834001D208DF806
:102620000000E06F6946007806F0C4FDE16F81F8B4
:1026300038001E208DF80000E06F6946007806F033
:10264000B9FDE16F81F839001F208DF80000E06FBF
:102650006946007806F0AEFDE16FC86320208DF872
:102660000000E06F6946007806F0A4FDE16F0864A1
:102670000B208DF80000E06F6946007806F09AFDA7
:1026800024F8140C0C208DF80000E06F69460078E7
:1026900006F090FD24F8120CE16FA84681F8245052
:1026A000E16F5D46C1F80890E16F81F80CA0E06F22
:1026B0008168C0F80811E06F017B80F80C11E06FB1
:1026C0000169C0F81011E06F4169C0F81411E06FA2
:1026D0008169C0F81811E06FC169C0F81C11E06F82
:1026E000016AC0F82011E06F90F8241080F82411DE
:1026F0008DF834B0CDF830B0E06F0CA9007807F059
:1027000034FA09F0BFFAE16F81F8FD8044E93367DC
:1027100084F8795044F8D08C54F87C0F4749C0F8BD
:10272000CC5154F87C0BC0F8D051A4F5CC70A4F572
:10273000A1640BF0B6FA424904F562700BF0B1FAED
:10274000404904F568700BF0ACFA3F4904F580602D
:102750000BF0A7FA0EA80BF07EF8DDE90E23D4F8F3
:102760008C044FF4EC713E4EC0F8D4210B50374826
:10277000C4F84C033648C4F854033648C4F85C0324
:102780003548C4F850033548C4F85803316804F597
:102790005370884733480AF0C3FCB0B905E0032002
:1027A00011B0BDE8F08F0920FAE72F48FFF7FAFBD8
:1027B00058B92E48FFF750F908B11320F0E7D4F8C4
:1027C0008C044C30FFF7C2FC08B11120E8E77069B7
:1027D00080470EF047FAD4F88C04B16D90F8FD00F4
:1027E0008847F06A80470A950B9578680A90F868E0
:1027F0000B900F481E4A2838029048380390343016
:10280000049031300590D4F88C0400F14801CDE9F2
:102810000610BC314C30CDE908100AA902A8FFF718
:102820008AF8012084F88A040020B9E78D0F00009F
:102830000425002070200020000300013939000029
:10284000BD380000F53800004D3700004938000061
:10285000A9370000F9370000953800002138000042
:10286000701A0100990F0000930F0000870F0000FD
:10287000810F00000548D0F8401319B990F88A0478
:10288000012801D0012070470020704770200020EF
:102890002DE9FF5F4FF0000904004FF0020B4D4699
:1028A0004E467DD0FFF7E6FF18B1012004B0BDE829
:1028B000F09F00208DF80C000146142244480DF0D2
:1028C00081FC4448012180F8451480F81A142278CC
:1028D00022B1012A0BD0032A2DD11EE080F8191451
:1028E0009DF80C10012621F0E00140310BE0E17B66
:1028F0000126082900D3082180F819149DF80C102E
:1029000021F0E00180318DF80C1094F80490A78933
:1029100094F90E50D4F808800DE080F819149DF851
:102920000C10012641F0E0018DF80C10278994F974
:102930000A50D4F8048002218DF804108246D0F8A1
:102940008C0490F838118DF80610007801A906F073
:1029500031FC40B2A84200DB05462EB3DAF88C0405
:10296000564690F8FE1089B98DF8005090F838114D
:102970008DF8021000780522694609F03AF978B11D
:10298000D6F88C149DF8000081F805013B464246BC
:10299000494603A80AF0F8FC5FEA000B0BD000E000
:1029A00007E0002086F81C04DAF8900420615846FD
:1029B0007CE703207AE7207886F8440496F88904B7
:1029C00040F0010086F889040020FEF78BF9EBE760
:1029D000B424002070200020022070477CB5040041
:1029E0004FF0000522D04A482178D0F88C043629CF
:1029F0006FD2DFE801F01D2024272B2E313387878B
:102A00008787878787878787878787878787878756
:102A100087878735383A3D42454A485255585B5E6C
:102A20006164666B696F72757B78878003207CBDFB
:102A300090F8FC0001E090F8E001207166E00AF0F7
:102A40005BFB01E00AF05CFB60605FE00AF064FBA6
:102A5000FAE790F8FE00F0E7406CF5E7806CF3E7EA
:102A600090F8FD00E9E71C2110E0D0E94A1001E0F0
:102A7000D0E90A10C4E9011048E0D0E94C10F9E7A8
:102A8000D0E90C10F6E71A2100E019218DF80010AA
:102A90000078694606F08EFBD6E790F82401CCE773
:102AA000D0F81001D0E7D0F81401CDE7D0F8180124
:102AB000CAE7D0F81C01C7E7D0F82001C4E7407985
:102AC000BBE790F80501B8E70079B6E790F8040194
:102AD000B3E717E0D0F80801B6E790F80C01ACE7CF
:102AE00090ED500A04E0FEF789FBADE790ED100A87
:102AF00084ED010A0AE0D0F8DC01606006F084FB96
:102B0000A06003E02046FEF723FF054628467CBD73
:102B100070200020FEB504004FF0000506D0F14EF5
:102B200096F84003800703D50120FEBD0320FEBDBB
:102B3000EC482178EC4FD0F88C04352970D2DFE8CE
:102B400001F01B1F25292D33373A3D424C51565B6E
:102B500060656A70757A7F84898E94999EA3A8AD0A
:102B60006FB4CCF5F3F2F1F0EFEEEDECEBEAE9E85F
:102B7000E7E6E5E4E3E2E10020790AF0BBFD98E155
:102B80002179022970D080F8E0119FE160680AF095
:102B900035FB06E060680AF043FB02E060680AF07B
:102BA00097FB002860D191E1217980F8FE108DE13A
:102BB000616841648AE16168816487E16168002934
:102BC000E0D0002003E061680029DBD00120FFF79E
:102BD000A3FA0028D9D01120FEBD61680029D1D008
:102BE0000220F4E761680029CCD00320EFE7616898
:102BF0000029C7D00420EAE761680029C2D0052077
:102C0000E5E761680029BDD00620E0E7616800299A
:102C1000B8D00720DBE761680029B3D07F20D6E772
:102C20005CE161680029ADD08020D0E761680029AF
:102C3000A8D08120CBE761680029A3D08220C6E715
:102C4000616800299ED08320C1E76168002999D07E
:102C50008420BCE76168002994D08520B7E76168CB
:102C600000298FD08620B2E784E06168002989D0EE
:102C70008720ACE7616800297CD08820A7E76168DD
:102C8000002977D08920A2E76168002972D08A20C4
:102C90009DE7616800296DD08B2098E7217980F845
:102CA000FD10BA6D0846904710E1217A8DF80010AA
:102CB00090F839118DF8011000780722694608F064
:102CC00098FF002856D0D4E90123D6F88C044FF49D
:102CD0009671C0F828210B50F8E0217A8DF8001089
:102CE00090F839118DF8011000780722694608F034
:102CF00080FF00283ED0D4E90112D6F88C04C0E948
:102D00000A12E3E0D7E0D0E0CAE0C4E0BCE0B4E0FF
:102D100093E0A1E07DE06DE067E062E05DE058E017
:102D200053E04BE03BE03EE025E0FFE7217A8DF801
:102D3000001090F839118DF80110007807226946CB
:102D400008F057FFB0B1D4E90123D6F88C044FF452
:102D50009A71C0F830210B50D6F88C0490F8FC1012
:102D600002292AD190F8E00138B3F86A804700F0D0
:102D70000DFEABE03DE0217A8DF8001090F839119E
:102D80008DF8011000780722694608F032FF80B301
:102D9000D4E90112D6F88C04C0E90C1296E06168FF
:102DA0000191012102E06168019100218DF8081074
:102DB000007801A904F02CFDD8B187E021794A1EE2
:102DC0000E2A16D880F8241180E06168C0F810112E
:102DD0007CE06168C0F8141178E06168C0F81811EF
:102DE00074E06168C0F81C1170E06168C0F82011DF
:102DF0006CE041E021798DF80010007806226946E8
:102E000008F0F7FEC0B3D6F88C149DF800004871A6
:102E10005CE021798DF8001090F838118DF80210DF
:102E200000780522694608F0E4FE28B3D6F88C1431
:102E30009DF8000081F8050148E021798DF8001027
:102E400000780A22694608F0D4FEA8B1D6F88C149E
:102E50009DF80000087139E021798DF800100078A4
:102E60000922694608F0C5FE30B1D6F88C149DF8E9
:102E7000000081F8040129E027E061688160D6F84C
:102E80008C04C0F8081121E021790173D6F88C0474
:102E900080F80C111AE094ED010A80ED500A15E05B
:102EA00094ED010A80ED100A10E0606868B108F046
:102EB0006FFF05460AE0A179012906D86168C0F8CC
:102EC000DC116068FFF73AF983E603250120FDF77E
:102ED00009FF0020FDF706FF2846FEBD2046FFF74C
:102EE0007BFDE6E770200020701A01002DE9FC410F
:102EF0004FF0000706004FF00205019703D0FFF7DF
:102F0000B9FC80BB02E00320BDE8FC81FEF7F6FEC1
:102F100048BBFEF787FE20B91422002153480DF06C
:102F200051F9534C012084F8590494F8891441F064
:102F3000040184F8891431788DF800108DF80100AF
:102F40008DF8037031780F295DD2DFE801F05C085D
:102F50005C5C31383C5C5C5C435C6A48650094F8BE
:102F60004003800601D50120CEE708F08BFED4F89F
:102F70008C0496F904100022007803F049FBD4F881
:102F80008C1481F8050107208DF80100FF200AF05C
:102F90000DFB050037D0D4F88C0496F904100122FB
:102FA000007803F035FBD4F88C1481F805012AE091
:102FB00000252A4601A9022021E0132537E0B08828
:102FC0000AF02AFB04E0327BB088B1680AF04EFBBD
:102FD000054618E000252A4601A90D200FE0D4F887
:102FE0008C0490F8FC0070B9357905F00700FEF705
:102FF000BEFC8DF804500025012201A91020FEF727
:10300000BBFC0028D9D1D4F890043061EDB100BFE9
:10301000FEF708FE08B31EE000252A4601A912208B
:10302000EDE78DF80300FEF787FC20B10125D4F809
:1030300090043061ECE70020FEF797FC0020FEF7DB
:1030400072FCD4F89004002530616846FEF7CCFD90
:103050000020FDF747FE284656E784F81C7494F8D4
:10306000890420F0040084F88904F4E7C8240020CF
:103070007020002010B5040059D02168F1B311F878
:10308000010B607111F8010BA06011F8022B40EAEE
:103090000220A06011F8012C40EA0240A06011F863
:1030A000042B40EA0260A06011F8030C207311F8B1
:1030B000022CE28111F8013C42EA0322E28100F095
:1030C0000F0204F110000DF067F8207B002184F856
:1030D000201084F8281000F00F0022790830111A0F
:1030E000091F00290FDD21680B5C401C121A121FFA
:1030F00084F82030D2B284F8282000E017E00144A0
:10310000606A0DF049F821792068084410F8041D20
:10311000E162427841EA0221E162827841EA0241B9
:10312000E162C07841EA0060E062002010BD022048
:1031300010BD10B504002CD0216851B311F8010B5B
:1031400060710322A01D0DF027F82168032204F10D
:103150000900091D0DF020F82168C879E0600A7A9D
:1031600040EA0220E0604A7A40EA0240E0608A7A5F
:1031700040EA0260E060C87A2074087B60742279BB
:103180000D200D3A142A06D0121F002A0ADD012054
:1031900010BD022010BD102204F112000D310CF000
:1031A000FBFF1D2021680A5C401C62620B5C401C16
:1031B00042EA032262620B5C401C42EA0342626202
:1031C000085C42EA00606062002010BD38B5FFF77D
:1031D0006BF8FEF7C4FB334C94F88904810655D58F
:1031E000002184F88A14D4F840130A0603D521F08C
:1031F0008201C4F8401341074FF0000501D4C00715
:1032000030D00C20FEF76EFD68B194F88904C10738
:1032100009D1400707D5D4F8400320F00200C4F8D4
:103220004003012000E00020F0B994F88904400731
:1032300018D50120FEF756FD30B10120FEF7FEFC47
:1032400050B984F8185407E00520FEF74BFD18B973
:103250000620FEF747FD28B1D4F8400320F0020015
:10326000C4F84003FFF768F8FFF7DAF8D4F8400332
:1032700048B98DF800506846FEF7A0FC9DF80000A4
:1032800008B10AF0BFF9012084F88A04FEF7D0FFE4
:1032900094F88804022803D1BDE8384000F076BBDA
:1032A00038BD00007020002070B506462D488AB059
:1032B0000C00D0F88C244FF00005D2F800110791D3
:1032C00051798DF8181011798DF82010009534D0AF
:1032D000D2F8DC1101918DF8085092F8FE108DF8AB
:1032E0000910D2F800110391B0F8FC13ADF81010DA
:1032F000B0F8FE03ADF8120092F805018DF8140045
:1033000092F804018DF8150092F838018DF8160036
:1033100010788DF8170007AB08AA06A901A8FEF7D8
:10332000F7FA9DF91800FEF75BF860706846FEF743
:1033300087FB20B113200AB070BD0320FBE7009982
:103340000F290CD86078884209D3411A217000995E
:103350003144884201D30020EDE70820EBE72570D7
:10336000FBE700007020002070B5040010D0216839
:1033700071B1207B94F8282000F00F00083002B1D2
:10338000401C10442279001D824203D2022070BDED
:10339000012070BD607908702168207A487020890A
:1033A0002168000A8870A0682168000CC870A068B5
:1033B0002168000E08712168207B48712168A07B7C
:1033C0008871E0892168000AC871207B04F110012E
:1033D00000F00F02206808300CF0DEFE207B00F0C9
:1033E0000F0594F82800083520B1216894F82000D2
:1033F00048556D1C206894F828202844616A0CF018
:10340000CBFE94F828002268284494F82C1011541C
:10341000A18D2268401C090A1154E16A2268401CEF
:10342000090C1154E16A2268401C090E1154401C19
:103430002071002070BD10B5040006D0206820B1B6
:103440002179172903D2022010BD012010BD617916
:10345000017020680822A11D401C0CF0A7FE206806
:10346000082204F10E0109300CF0A0FE2168A07DB5
:103470004874E08A2168000A88742168207EC87434
:10348000208B2168000A0875A0692168000C487526
:10349000A0692168000E887517202071002010BDDA
:1034A00002490020C1F8400370470000702000204E
:1034B00010B5044606A1002008F048FE60780F49C8
:1034C00051F82020BDE810400DA1002008F03EBEBC
:1034D0000D0A232323232323203D3D3D3D3D204D45
:1034E0004350532D436F6E6669726D203D3D3D3DE7
:1034F000202323232323230D0A000000D4020020CD
:103500005354415455532020202020203A20257325
:103510000D0A00007CB504461AA1002008F016FE32
:103520006078244951F8202023A1002008F00EFEE5
:103530006078002825D1217B94F91000CDE90001A5
:10354000B4F90E30E2782149002008F0FFFD207B1D
:1035500020B11FA223A1002008F0F8FD002507E0FC
:10356000A06821A1425D002008F0F0FD6D1CADB205
:10357000207BA842F4D8BDE87C4013A1002008F0CD
:10358000E5BD7CBD0D0A232323232323203D3D3DA0
:103590003D3D204D4350532D496E6469636174690C
:1035A0006F6E203D3D3D3D202323232323230D0A21
:1035B00000000000D40200205354415455532020F1
:1035C000202020203A2025730D0A0000781C0100DD
:1035D0004C4F524157414E207265637620646174AE
:1035E0006120000025733A003078253032782000C1
:1035F00010B504460DA1002008F0A8FD607816491A
:10360000237851F8202015A1002008F09FFD207894
:10361000012809D1607828B118A1BDE81040002028
:1036200008F094BD1CA1F8E710BD00000D0A23238B
:1036300023232323203D3D3D3D3D204D4C4D452D35
:10364000436F6E6669726D203D3D3D3D202323230F
:103650002323230D0A000000D402002053544154B8
:1036600055532020202020203A2025732072657198
:10367000756573743A25640D0A0000002B4A4F49A2
:103680004E494E473A204A4F494E204641494C4503
:10369000440D0A4F4B0D0A002B4A4F494E494E47E5
:1036A0003A204A4F494E45440D0A4F4B0D0A00003F
:1036B00010B5044609A1002008F048FD60781349C0
:1036C00051F8202012A1002008F040FD2278BDE82A
:1036D000104014A1002008F039BD00000D0A23237A
:1036E00023232323203D3D3D3D3D204D4C4D452D85
:1036F000496E6469636174696F6E203D3D3D3D2094
:103700002323232323230D0A00000000D4020020DA
:103710005354415455532020202020203A20257313
:103720000D0A00004D6C6D65496E646963617469D2
:103730006F6E2069732025640D0A0000024800683E
:10374000002800D0004770478400002010B51048C2
:103750000AF056FB0F4890F81C14012901D180F89B
:103760001B14D0F88C1491F8FC10022905D190F8A4
:10377000891441F0200180F88914D0F8480300280A
:1037800005D0C068002802D0BDE81040004710BD39
:10379000702400207020002002480178491C01702C
:1037A00070470000680200202DE9F0411C461546D4
:1037B0000E4607460AF05EFA01460C48C0E90017BB
:1037C0000681458104730A48016841F008010160DF
:1037D0000848D0F84803002805D0C068002802D067
:1037E000BDE8F0410047BDE8F0810000242700203B
:1037F0007C000020702000200748016841F0020191
:1038000001600648D0F84803002803D0C0680028AB
:1038100000D00047704700007C000020702000208E
:103820000748016841F0010101600648D0F84803EB
:10383000002803D0C068002800D00047704700006F
:103840007C000020702000201CB50AF013FA0E49FD
:103850000860684609F0E0FF0C48DDE90012C0E9A5
:103860000E120948001F016841F01001016008486C
:10387000D0F84803002806D0C068002803D002B062
:10388000BDE8104000471CBD8000002070230020D0
:10389000702000200748016841F0040101600648DB
:1038A000D0F84803002803D0C068002800D00047A3
:1038B000704700007C000020702000200C4890F829
:1038C0001D1480F8C013D0F88C1491F8252180F8CD
:1038D000C32391F8391180F8D013002180F8D11357
:1038E00080F8D21300F5707100F5627008F022BB09
:1038F000702000200F4890F88814002919D090F803
:103900001D1480F8D413D0F88C14D1F82821C0F8F5
:10391000D82391F8391180F8E413002180F8E513D9
:10392000012180F8E61300F5757100F5687008F064
:1039300001BB70477020002010B512480AF060FAF1
:10394000114CD4F8400320F02000C4F840030120BB
:1039500009F0B8FA002814D00B2812D0D4F88C043F
:1039600090F8050184F8460494F81A0484F8490490
:10397000092084F84504FEF707FABDE8104009F075
:1039800093BE10BDE02300207020002038B5144DF8
:103990000095A5F57A74D4F88C0490F80C2190F970
:1039A0003411D0F80831007804F00DFA022084F8C0
:1039B000FA03012084F8F903D4F88C0404F5856235
:1039C0002946007807F010FB002807D00548416B16
:1039D0000020884794F8FA0384F8880438BD000072
:1039E00058240020701A010070B54FF480763046DC
:1039F0000CF013FD114CB50560B130460CF014FD10
:103A00000120C5F80803607920B9012060712168A0
:103A1000002088474FF4827630460CF0FEFC0028E8
:103A20000AD030460CF000FD0220C5F808032168DA
:103A3000BDE870400120084770BD00000000002074
:103A40002DE9F0418CB090460700DDE912200C46CC
:103A500024D00026089603968DF80D208DF80E30A0
:103A6000190A09968DF80F100496190C8DF810108C
:103A7000190E8DF811108DF81200010A8DF813102F
:103A800001250A96010C0796059602968DF81410EA
:103A9000000E8DF808508DF8150027E00A200CB0B4
:103AA000BDE8F0818DF817506D1CADB207AB4246F2
:103AB000102102A809F0C4FA08B10F20EFE7002096
:103AC00007AA08E0311812F800C07B5C401C83EAAA
:103AD0000C037B54C0B2102C01DD102100E0214604
:103AE0008142EFDC103C103624B2F6B2002CD9DC57
:103AF0000020D4E710B547F230500AF016FA0BF068
:103B0000BBFE002803D0BDE810400BF095BE10BDF1
:103B100070B5DDE90551049EE1B149240C70002423
:103B20000AB1012B18D04C708C70CC700C714B7199
:103B30008E71320ACA71320C0A72320E4A728D725A
:103B40002A0ACA722A0C0A732A0E4A738C73C87323
:103B5000002070BD0A2070BD034A126892894A7025
:103B6000120A8A70E1E70000880000202DE9FC5F5E
:103B7000DFF84C814FF000090C9CA8F8009088F801
:103B80001C941F0093460E460546CDF80490CDF8D0
:103B9000009000D100244B482246194682460CF082
:103BA000FBFAE2B288F83722287888F802002878F1
:103BB00044464009022809D0042804D0072872D0BE
:103BC0000220BDE8FC9F012084F81C04042084F836
:103BD00004013B48801CC4F80801FF2084F80C0154
:103BE000287884F80D0184F828B1D4F88C04806C0E
:103BF000C4F81001307884F8140184F8302101A849
:103C0000C4F82CA1FEF74CF908B11220D9E70198AD
:103C1000A4F8160184F8499484F84894C4F8500430
:103C20004D466846FDF70CFF70BB0098C8B3D4F84A
:103C30008C0490F90501FDF7D3FB94F83712D9B144
:103C400000990F290ED81F4A6946203A0F20FDF728
:103C500081FFC8B93078009961F30300307084F8AF
:103C600014012AE0D4F88C24694602F5A372FDF70A
:103C700071FF48B90A20A4E7D4F88C24694602F5FC
:103C8000A372FDF767FF08B113209AE784F8285163
:103C9000D4F88C0400F5A370C4F82C01009884F8C3
:103CA00030010AE0FFE747B13AB13946E01C0CF0B9
:103CB00073FA94F83702401C2080002081E700004E
:103CC00070200020A821002010B50C4CD4F840032F
:103CD00040F08000C4F8400394F81C04012802D18D
:103CE0000020FFF733FD94F8890440F0220084F8A7
:103CF0008904BDE810400AF0D9B800007020002007
:103D00002DE9FF4F8FB04FF0000817460C460546CF
:103D10008DF80C80C246DFF824B5CDF8188087E214
:103D2000285DFDF76BFE2044B84275D8285D641C01
:103D3000801EE4B212286FD2DFE800F0091C8194E3
:103D4000E2FDFBFAF96E6EF86E6EF7F6F5F40420FC
:103D5000FDF7C8FF0028E2D004210020FDF7FCFF9A
:103D6000285D8BF86004641CE0B22A5C8BF8612447
:103D7000401C62E08DF830808DF810808DF8148042
:103D80008DF80880BAF1000FC9D12819401E08909B
:103D9000381B401C8DF82400DBF88C0402AA4FF07D
:103DA000010A10F8FE1F8DF8261090F83A108DF8D1
:103DB0002510C1798DF8271081798DF8281090F899
:103DC00026108DF82910D0F8DE1007910CA9CDE946
:103DD00000125E4610F8FE0C05AB04AA07A906F017
:103DE0009BFB8DF80C00C043400711D1D6F88C1412
:103DF0009DF8100081F80501D6F88C149DF8140088
:103E000081F80401D6F88C149DF8300081F8240163
:103E100000264FF0050907E00DE2012203A9032067
:103E2000FDF7AAFD761CF6B29DF80810B1FBF9F07B
:103E3000B042F2D8C8B22044401EC4B2F8E1285DB6
:103E4000DBF88C2400F00F00641C82F84401DBF8DE
:103E50008C2401218140A2F8C8110022E4B206A9F5
:103E60000420E3E107208DF80C00285D5E46C0F3D6
:103E700002108DF80100285D641C00F00F008DF821
:103E80000000E0B2295C401CC0B201912A5C401CD9
:103E900041EA0221C0B201912A5C401C41EA024180
:103EA000C4B20846642148430190DBF88C0469469B
:103EB000007807F0CDF8C1438DF80C00490719D1FF
:103EC000D6F88C249DF8001082F82C11D6F88C249A
:103ED00082F83411D6F88C240199C2F82811D6F84A
:103EE0008C240199C2F83011D6F88C249DF8011069
:103EF00082F825118DF81800012206A9052064E03A
:103F0000DBF84813FF2011B1096801B188478DF82B
:103F100018001298022200F03F008DF8190006A93F
:103F2000062083E167E14BE12DE11BE1CEE0A4E057
:103F300050E031E0FFE703208DF80C00285D8DF89C
:103F40001400641CE0B2CDF810D0295C401CC0B253
:103F500000912A5C401C41EA0221C0B200912A5C17
:103F6000401C41EA0241642200915143CDE900180E
:103F7000C0B2295C401C8DF80810C4B2DBF88C0478
:103F800004A9007806F01FFB8DF80C008DF81800CE
:103F9000012206A9072049E1285D04F1010410F07F
:103FA0000F00E4B200D101204FF47A7110FB01F14F
:103FB000DBF88C24C2F81411DBF88C0401F57A715B
:103FC0000022C0F8181106A90820FDF7D5FC09F059
:103FD00019FB2DE1285D641C8DF80080E4B28DF89A
:103FE0000180810602D501218DF80110C10602D59C
:103FF00001218DF8001000F00F008DF80200DBF8B1
:104000008C045E466946007807F0E6F8401CE0D074
:10401000D6F88C149DF8000081F83801D6F88C147D
:104020009DF8010081F839019DF802008449085C7F
:1040300000EE100AD6F88C04B8EE400A80ED4F0A64
:1040400002208DF80400D6F88C0406F28C4690F815
:1040500038118DF80610007801A905F0ABF8326828
:10406000014649B292F90501884200DC084682F80F
:104070000501002206A90920D8E003208DF80C00D4
:10408000285D8DF80000641CE0B2295C401CC0B2C1
:1040900001912A5C401C41EA0221C0B201912A5CD4
:1040A000401C41EA0241C4B20846642148430190E1
:1040B000DBF88C046946007803F0D1FE8DF80C0023
:1040C0008DF81800012206A90A207EE70A20FDF7D4
:1040D00009FE002845D00A210020FDF73DFE2A5D9B
:1040E000641CE1B240466B5C491CC9B242EA03223F
:1040F0006B5C491CC9B242EA03426B5C491CC9B201
:1041000042EA03626B5C491CCCB24FF47A314B43F8
:10411000191461F30F0081464A481044019007A822
:1041200009F07AFBDDE90706059044484A46019903
:10413000D0F83C0300904448836B09A809F0B2FB17
:104140000A980090324607A8099B059909F051FB8F
:10415000DDE9070109F08CFBFDF7E7FB01208BF897
:10416000400465E00D20FDF7BDFDE8B30D21002002
:10417000FDF7F2FD9BF88804042859D0052857D094
:10418000FDF7EBFB54E0295D641CE0B22A5C401CA7
:10419000C0B241EA02212A5C401C41EA0241C0B29D
:1041A000642251432A5C401C02F00F02C4B2104644
:1041B000FDF7D1FB8DF81800012206A9112035E08A
:1041C0000E20FDF78FFD78B10E210020FDF7C4FD14
:1041D000295D641CE0B22A5C401CC0B241EA0223A3
:1041E000295C401CC4B200E022E01848026818466E
:1041F000FDF79AFB1CE0295D641CE0B22A5C401CC0
:1042000041EA0222C1B2685C491CCCB242EA0040D9
:1042100064214843FDF785FB18B101208DF8180093
:1042200001E08DF81880012206A91320FDF7A4FBF8
:10423000BC42FFF475AD13B0BDE8F08F70200020D4
:10424000DF1101006E3DD5127023002024270020CD
:104250002DE9F04FFE48A7B0FE4D0689B0F90A409F
:1042600090F90CB0D0F8048000200490D5F88C149C
:104270008146896C06910421079185F84804A5F8C8
:10428000324485F834B495F8881485F8351485F8E7
:10429000270485F8260485F82904C5F82C0485F838
:1042A000300485F8310485F83604C5F8380485F8FB
:1042B0002404C5F83C0485F84004E748C06A8047F8
:1042C00005F5687009F09CFD31464046FDF74BFB53
:1042D00030B1A5F87E4485F880B427B0BDE8F08FF2
:1042E000D5F88C0490F8FC00012816D1FDF72CFBC2
:1042F00038B10020FDF73CFB0020FDF72FFB042028
:1043000009E0FDF71FFB40B10020FDF72FFB002067
:10431000FDF720FB052085F8350498F800000127FB
:1043200041098246012916D0CC48032904467DD094
:1043300005297CD007297BD085F82574FFF7C4FCBC
:1043400095F81C04012874D0D5F88C0490F8FC0072
:1043500002286FD023E2112E08D3CDF858808DF8B3
:104360005C60D5F88C0490F8E00110B185F82574F4
:1043700054E108F0C5FE014616AAFF20FDF7A2FD94
:1043800048B10120FDF7AEFC0028D9D0012107205B
:10439000FDF7E2FCD4E7D5F88C149DF86100486481
:1043A0009DF86220D5F88C1440EA022048649DF8FC
:1043B0006320D5F88C1440EA02404864D5F88C1488
:1043C000199888649DF86800D5F88C14C0F3021021
:1043D00081F825019DF86800D5F88C1400F00F00D5
:1043E00081F82C019DF86800D5F88C1400F00F00BE
:1043F00081F83401D5F88C149DF86900C1F81401D6
:10440000D5F88C1408B9C1F81471D5F88C144FF490
:104410007A72D1F814015043C1F81401D5F88C1404
:1044200000F57A70C1F81801002004E025E022E0D0
:1044300097E1ADE1B0E1D5F88C14113E81F8DE01D1
:104440000DF16A0023908DF89060D5F88C0423A9B3
:1044500005F28C45007802F00FF929680220A5F2D8
:104460008C4581F8E0010120FDF73CFC002891D04B
:10447000012100208CE785F82474D5F88C0490F88D
:1044800039118DF8821095F828148DF881100D21BE
:104490008DF88010007820A904F08CFE6FF00C01DC
:1044A00001FA86F212B2002A01DA002102E001FAD2
:1044B00086F109B200B281423FF758AF0C2EFFF4EB
:1044C00055AFCDF82080FF208DF848008DF824608E
:1044D000119408A8FEF7CEFD00287FF447AF0A9894
:1044E000C5F83C042C4614A908A8FCF729FD10B116
:1044F00084F8257492E0002004905023D4F88C14A2
:104500004E2600BF00EB400202EBC00203EB820C20
:10451000DDF8288051F80CC0C44506D106EB820CAA
:1045200011F80CC0BCF1010F04D0401CC0B204282B
:10453000E8D327E000EB400606EBC0004F2606EB71
:1045400080004FF00109085C07906C2000EB8200AE
:10455000085803EB820100680490D4F88C04415899
:10456000069190F8FC00022802D1032084F835045B
:104570009DF850000328BBD19DF82C008106B7D4CC
:104580004006B5D414208DF88000D4F88C0420A9FE
:10459000007804F00FFE05AA80B2CDE9000204A95C
:1045A0000291D4F88C0408AA9DF85010D0F8DC31A0
:1045B0000798FCF789FE10B3072807D008281AD0FF
:1045C00084F825740498C4F8380427E0082084F897
:1045D0002504D4F88C0490F8DE110029F2D10522CC
:1045E000B2EB5A1FEED1D0F8E411139A9142E9D1FF
:1045F00080F8C671E6E70A2084F82504E2E708A8F7
:104600000090DDE906109DF81420049BFDF7B2FD33
:1046100048B1022805D00C2084F82504FFF754FB8C
:104620005BE60B20F8E7002084F8250484F8269444
:104630009DF82C10C1F3001284F82924C4F82C042E
:1046400084F83004049AC1F34011C4F8382407E018
:104650002427002070200020701A0100A8220020CA
:1046600084F8361484F8450484F8481494F8351412
:1046700009B1012903D1D4F88C14C1F80001B9F1B2
:10468000000F01D0022016E00522B2EB5A1F0ED116
:10469000D4F88C0480F8C671D4F88C0490F8DE113C
:1046A00011B91399C0F8E41184F8247405E0D4F822
:1046B0008C1481F8C60184F8240494F8351494F815
:1046C00044240B9809B1012905D1012A01D18006A2
:1046D00001D5FDF71BFA9DF850100CA889B10129EE
:1046E00028D002292ED0032916D084F82574FFF78C
:1046F000EBFA00BF94F8890440F0020084F88904C2
:104700001EE694F8351400919DF82C105B4601F0DC
:104710000F020021FFF7F4FA9DF8400084F8270407
:104720001198C4F82C049DF8480084F8300484F8EB
:104730003174DFE794F8351400919DF82C1001F0E6
:104740000F0205E094F8350400909DF84820119878
:104750005B460021FFF7D4FA9DF8400084F8270457
:10476000C8E7761EB2B208F101010BF015FD032077
:1047700085F82404002085F82504C5F82C4485F824
:10478000306495F8890440F0020085F88904D7E583
:1047900095F84804012802D10020FEF7D7FF95F8CC
:1047A000890440F0200085F8890409F07FFB94E536
:1047B00030B5394C8DB0D4F88C0490F8FC00022848
:1047C00002D03648C06A80473548D4F8B813054649
:1047D00009F0C9FA284609F0D7FA3148D4F8BC13D1
:1047E0001830054609F0BFFA284609F0CDFAD4F88A
:1047F0008C0490F8FC10022903D094F81C140129B1
:1048000011D115218DF8281000780AA904F0D2FCE6
:10481000D4F8BC13014422487830054609F0A3FAC5
:10482000284609F0B1FA1F48D4F88C140068C1F882
:10483000CC0194F81D1406908DF8141003A809F00B
:104840000AF8D4F88C1401F5EA70D1F8D811009167
:10485000DDE90312036801A809F024F8DDE901018C
:10486000CDE90801D4F82004079001208DF8150047
:10487000D4F88C04002590F8E01109B98DF8155092
:10488000007805A906F00DFC94F81C04002801D15D
:1048900084F845540DB030BD70200020701A01001E
:1048A000F823002080000020064882B0002101602B
:1048B00000680090044800680449C0B2496802B02A
:1048C0000847000000D1004008D500401800002033
:1048D0000F4830B4D0F8041149B10E494FF080743C
:1048E000D1E90623121943F10003C1E9062300218F
:1048F000C0F84011C0F84411C0F84811C0F84C117C
:10490000C0F80011C0F8041130BC0CF0AFBA0000C0
:1049100000100140280000200120704778B10B4AA8
:10492000002100BF52F8313083420AD802EBC103A4
:104930009B68834205D902EBC100007B70471F20B2
:104940007047491CC9B21529ECD3FEE7E01A0100F3
:10495000F0B50025DDE90664121D059F052901D08B
:10496000062902D10C2B00D20C2310B1012802D051
:1049700004E00B2901D00C2900D101250CB1102035
:1049800000E0002000EBC6004C4200EB84000FB1B9
:10499000002400E0142404448800062902D90834C5
:1049A00005B10838002C00DA00240444641E94FB8E
:1049B000F0F00C3300FB0230062900D8801C0122E5
:1049C00002EB8000891E8840F0BD10B507F054FD51
:1049D000042805D0052805D0072805D0002010BDE3
:1049E000022010BD012010BD032010BD10B507F03E
:1049F00035FDC01C10BD000010B5134C20611348DC
:104A000007F0EEFD002008F02AF9012008F077F801
:104A10000021084607F0D9FE0421002008F05CF9C7
:104A200000234FF6FF701A46014607F027FF08499A
:104A3000084809F036F907480749183009F031F9F4
:104A40000020A07010BD000048020020014C0000B2
:104A5000254C0000A83B00200D4C00007FB5504CB9
:104A6000A078002872D002A8FCF7CCF80020A07033
:104A700002A8FCF7CDF807F0F5FC05464FF6FF70ED
:104A800007F0E0FCE8070AD0464809F0B9F9012030
:104A900007F0AAFF206910B1006800B18047A8079D
:104AA0003BD568060AD5607810B9012007F09CFF55
:104AB000206990B3006980B380472EE039481830F0
:104AC00009F09EF9607888B9012007F08DFF002178
:104AD00040F6021008F0CCF940F64416304607F0D4
:104AE0001FFE40F00201304608F0C2F9FF2269467D
:104AF0002D4807F005FD2C48143807F0C3FC206949
:104B000058B186684EB128489DF80010143890F9C5
:104B10000D3090F90C201430B04728060BD5012039
:104B200007F062FF206930B1816921B1E84340F3A9
:104B30000020401C8847A8051FD507F09DFC0428CD
:104B400005D007F099FC05280BD016E027E01548A2
:104B500009F056F9012007F047FF206968B1406865
:104B600009E01048183009F04BF9012007F03CFF2C
:104B7000206910B1C06800B18047A8060FD5094868
:104B8000183009F03DF9607810B9012007F02CFFCA
:104B90002069002803D0C068002800D080477FBD6E
:104BA00048020020A83B00206C3A00202DE9F0418B
:104BB0001D4617460E468046012400F0EFFA404697
:104BC00000F0D8F8304607F0A1FF002000F04CF8C4
:104BD0000120FCF765F909F04DF8064606E000BF34
:104BE00007F0D4FCB84201DD002404E0304609F0AF
:104BF00048F8A842F4D300F0D1FA2046BDE8F0818D
:104C0000014901208870704748020020044800696B
:104C1000002803D0C068002800D00047704700007B
:104C20004802002004480069002803D0406800289A
:104C300000D00047704700004802002010B5012056
:104C400000F098F800231A461946184607F016FE99
:104C5000BDE8104007F06BBC80B207F061BD80B2C8
:104C600007F066BD07F092BC10B5044600234FF66E
:104C7000FF701A46014607F001FE34B1214609488B
:104C800009F071F8074809F07FF80748417811B139
:104C90006FF07F4001E0C0688001BDE8104007F080
:104CA00080BF0000C03B00204802002010B5044631
:104CB00000234FF6FF701A46014607F0DFFD34B1BE
:104CC0002146094809F04FF8074809F05DF8074800
:104CD000417811B16FF07F4001E0C0688001BDE80C
:104CE000104007F071BF0000C03B002048020020C8
:104CF00070B505460C46002340F201201A460146D5
:104D000007F0BCFD07F0F6FB01460D48012914D061
:104D100004720B4807F07EFE00222146284607F069
:104D20004BFD0848816806483C3009F01CF8BDE896
:104D3000704003483C3009F027B8C473E9E700002D
:104D40006C3B00204802002007F0E0BE074B084AF9
:104D5000012807D0D079012807D1197011720448B1
:104D600007F058BE1970D173F9E770474802002068
:104D70006C3B002010B50A4C012805D0002007F03C
:104D8000ABFE0020607010BD012007F0A5FE617829
:104D900020788142F7D06070BDE8104000F002B882
:104DA0004B02002070B504460B480470447001208B
:104DB000FFF7E0FF4FF4E860451C24B1342108F010
:104DC00057F8442103E0142108F052F82421284622
:104DD000BDE8704008F04CB84B0200202DE9FF4FB1
:104DE00016462DED028B83B08846DDE91592744D91
:104DF00001461B98139F687008B1002014905FEA69
:104E0000090001D02A7001E0FF2028706D4C4FF09E
:104E1000000A04F128004FF0010B0290C9B10129EA
:104E20007ED1002007F02AFF674B84F828B0F1B24A
:104E300084F8381013F8082084F83920089A584666
:104E400084F83A20B8F1000F70D0B8F1010F6FD09C
:104E500070E0002007F012FF84F828A00B20E66223
:104E600084F834004046FFF759FD84F835004FF6CA
:104E7000FF7084F800A000EAC70060800420207161
:104E80001820607184F806A089F00100E07128788C
:104E90002072179810B1F220607201E084F809B016
:104EA00084F80AB0002007F0DAFE94F8280000B178
:104EB0000120FFF75FFF029807F016FD414807F059
:104EC000A9FD42A1D1E90001CDE90001684607F042
:104ED000DCFE40F2FF1007F049FF3046FBF7B1FB64
:104EE00041EC100B53EC102B9FED3A0B51EC100BD7
:104EF000FBF727FB9FED391B53EC112BFBF7AFFAA8
:104F000041EC180B1498FBF79CFB53EC182BFBF7A8
:104F1000A6FA9FED341B53EC112BFBF7A0FA02E02D
:104F200044E003E004E0FBF7B8FB3EE00B2E09D0C1
:104F30000C2E07D084F83BA02070052905D0062947
:104F400003D007E084F83B00F6E70C2F02D20C20D8
:104F5000A08100E0A78184F80E902878E07317986C
:104F600020741A986074002007F079FE94F82800E5
:104F700000B10120FFF7FEFE029807F0B5FC1148D2
:104F800007F048FD1498C0B207F093FC607C40F233
:104F90003674012820460ED007F0C2FB40F0040111
:104FA000204607F065FF4FF6FF70E86003B0BDECE8
:104FB000028BBDE8FF8F07F0B3FB20F00401EFE7A1
:104FC000480200206C3B0020DC1A0100C194C100A3
:104FD00000000000000000000000F03F00000000A2
:104FE000000020400000000000408F4007F004BE99
:104FF0002DE9FF4F83B010AC5FEA000C94E8830604
:10500000554CDDF85C8004F128024FF0000640F6B4
:10501000890B4FF00105029203D0BCF1010F3ED184
:105020003EE084F82860E0620B2084F834001846E3
:10503000FFF774FC84F83500059820634FF6FF7085
:10504000267000EAC700608004202071182060717B
:10505000A67189F00100E071BAF1000F02D0F220D0
:10506000607200E06572A572002007F0F8FD94F808
:10507000280000B10120FFF77DFE029807F034FC04
:10508000354807F0C7FC35A1D1E90001CDE90001A1
:10509000684607F0FAFD40F2FF1007F067FE41E0B6
:1050A000DFF8C0C084F82850C2B284F838201CF859
:1050B00003C084F839C084F83A1013B1012B02D030
:1050C00003E00B2809D00C2807D084F83B6025703A
:1050D000052A05D0062A03D007E084F83B50F6E7FE
:1050E0000C2F02D20C20A08100E0A7811E4884F87A
:1050F0000E900078E07384F810A084F811800020EE
:1051000007F0ADFD94F8280000B10120FFF732FE52
:10511000029807F0E9FB104807F07CFC94F839008E
:10512000062811D05C46584607F0FAFA40F0040110
:10513000204607F09DFE049807F030FD0A491898B4
:10514000886007B0BDE8F08F5C46584607F0E8FA83
:1051500020F00401ECE700006C3B0020C194C1008A
:1051600000000000DC1A01004802002070B50D4666
:105170004FF47A7102FB01F407F0C8FC284607F0EF
:105180000DFD07F09EFD2146034808F0ECFDBDE84B
:105190007040014808F0F8BDA83B002010B504207D
:1051A00007F044FDBDE810400220FBF779BE002067
:1051B00007F055BD10B500234FF4C0701A460146E4
:1051C00007F05CFBBDE8104007F00ABBFEB51F46C8
:1051D00015460E46DDE90A21DDE908C35FEA000E47
:1051E0004FF000004FF0010403D0BEF1010F45D194
:1051F00011E073B15FF0000000EBCC0001B10221BF
:10520000114400EBC1004FF47A71183048432C462A
:1052100034E00820F0E7CDE90032029163463A46D7
:1052200029463046FFF794FB4FF47A7148431649FC
:105230000024895D0B2921D2DFE801F0060C121849
:105240001B1D1F20090F150041F6846416E042F66D
:10525000B10413E043F6095410E045F261140DE087
:1052600047F612240AE04AF2C32407E04FF224442E
:1052700004E0064C02E0064C00E0064C2044401ED0
:10528000B0FBF4F0FEBD0000DC1A010048E80100AC
:1052900090D0030020A1070080B207F0E9BD80B2E2
:1052A00007F0ECBD02207047F0B587B007465020EC
:1052B0008DF808003879102833D13868C07B002871
:1052C0002FD100240225264601E0072D1AD2386886
:1052D000611C005D00903A68515C40EA012000903A
:1052E0003A68A11C515C40EA014064214843CDE981
:1052F00000060BD0CDF80CD08DF8105003A800F0AC
:1053000041F808E000968DF8086001968DF8145079
:1053100005A800F087F8E41C6D1CEDB2E4B2102D76
:10532000D3D307B0F0BD000010B50024012800D190
:105330000224084880560B1AA34201DA204600E0F6
:105340001846052801DD052402E0A34200DB1C46C7
:10535000E0B210BD0812010010B5017919B10129A0
:1053600005D0002010BD01680122054803E0016856
:1053700003480122801C02F089FA012010BD0000C0
:10538000602900202DE9F0410024067905462746D2
:10539000022E28D3102E02D30320BDE8F081286806
:1053A00007220021007A40F3030002F004FD00B957
:1053B000012428680722002190F90800001102F05A
:1053C000FAFC00B90124286890F9081041F303029F
:1053D000B2EB211F00DD0124006808F0DFFD00B9F9
:1053E00001273C4201D00620D7E70CB10520D4E7C5
:1053F0000FB10420D1E72968094D06EB460005EB03
:10540000800004460C220AF0C7FE0020607235F8C6
:10541000D40F0121B140084328800020BDE70000DF
:105420008C28002001784FF0000002290CD3074B94
:1054300001EB410203EB8202106050609060102289
:1054400003F1D40002F00DBA704700008C28002050
:1054500070B51C462DED028B82B015460E4607280E
:1054600000DB07206070FBF7EDFDA07094F90100F0
:10547000124A07281ED002F1200151F82010105CBA
:1054800002F0EAFA0E48B0EE408AF0EE608AC06D93
:105490008047024604F10C00031F00902946304665
:1054A000B0EE480AF0EE680A02F036FA02B0BDEC3F
:1054B000028B70BD105C02F0BBFAE3E7F011010053
:1054C000701A010070B505460324406808F066FDB7
:1054D00000B902242878084900EB400051F8202048
:1054E0000AB904F0FD04032C03D101EB80006A68C3
:1054F0004260204670BD00008C280020D821016049
:10550000004870478C2800202DE9F0410246002613
:1055100092F800C002250124464B032730464FF481
:105520007A71BCF1390F24D2DFE80CF0231D1F2360
:105530002323222323232331333523404345484B60
:105540004E51235722595B5E6063636568252323B0
:105550002323232323232323232323756D7723232B
:10556000757723797E00D17800E09178002900D00A
:105570002846BDE8F0819078002892F9010004D017
:105580000221BDE8F041FBF74BBF0021F9E74020C5
:10559000EFE72020EDE79078002892F9010002D093
:1055A0002549085CE5E724490839FAE740F6B830B0
:1055B000DFE70846DDE74FF4FA60DAE741F28830CA
:1055C000D7E741F27070D4E74FF48040D1E71B4831
:1055D0000BF052FA00F5FA60CBE71948C9E7194811
:1055E000C7E71848801CC4E71020C2E71548D43824
:1055F000BFE72046BDE7B3EE000A01E09FED120AC7
:1056000010EE100AB5E7112161F3070065F30F20D2
:1056100066F31740ADE71846ABE73846A9E70649F9
:1056200092F901001039BCE792F90100BDE8F041A0
:10563000FBF708BD40F709370012010018FCFFFF17
:1056400000EA0637602900209A99094010B586B013
:10565000044614221C496846FAF72DFE207988B1C9
:10566000194A1A49403A012811D002281ED00328AD
:1056700006D12168002903D0D82214480AF08CFDF5
:1056800006B010BD114814226946C030F6E7543206
:1056900019CA19C10DCA0DC10320A1F8BE000B49DA
:1056A0000122D631881E02F0F1F8E9E7B1F8D40002
:1056B000B1F8D63018436C32A1F8D40019CA19C118
:1056C0000DCA81E80D00DBE7301201008C280020B4
:1056D0002DE9FF4F072591B0002692468B460446E0
:1056E0003746ADF80060DFF8489142E060680BA9EA
:1056F000304402F0EFFAA8B33044C6B2BDF830002F
:105700009DF82F100725ADF80000084304D0481E6F
:10571000042801D9072901D306252AE00020012207
:105720004B4606290ED0BDF8008002FA00FC1CEAA8
:10573000080F1AD000EB400C53F82CC0BCF1000F3E
:1057400011D012E000EB400C53F82CC0BCF1000F5C
:105750000BD0BDF8008002FA00FC4CEA080CADF852
:1057600000C002E008E005F0FE05401CC0B21028B1
:10577000D7D3207AB042B9D802208DF83400607AAD
:105780008DF836000DA8FFF7BFFE8DF80C50A17AFA
:105790008DF80D109DF82D108DF80E109DF82E101F
:1057A0008DF80F109DF82C108DF81010E17A8DF8FF
:1057B0001110217B8DF81210617B8DF813108DF87C
:1057C0001C00072010218DF814108DF82400CDF84E
:1057D00018D08DF81D00CDF820908DF82570206828
:1057E0000BAB02904D469A1C591C02A802F030FAED
:1057F0000446072809D10E4802220021D4300AF0BD
:10580000E1FCBDF80000A5F8D4009DF82D108BF840
:1058100000109DF82E108AF8001014989DF82C1096
:1058200001701E98067015B02046BDE8F08F00008C
:105830008C2800203EB5016803240A6862B10091FB
:1058400000798DF804006846FFF79CFD88B10428B4
:105850000AD005280CD109E000798DF8080002A8CB
:10586000FFF7E0FD20B104E0022402E0012400E0A3
:10587000002420463EBD00002DE9F04F054699B0BA
:1058800000208A468DF808008DF850000B900C908F
:105890000D9001460E903E48164698460122074656
:1058A00002F012F93A4CD43C28B9B4F8D40040F0D4
:1058B0000300A4F8D400687A8DF83C00287A8DF8AB
:1058C0003D00334810971438CDE911401020ADF851
:1058D0004C000320ADF84E002868039068680490DF
:1058E000A87A8DF8140001208DF81500D5E9030180
:1058F000CDE90601287D8DF82000E98A95F9080098
:10590000FBF7A2FD09900FA80A9014A8CDE90006A4
:1059100002AB0BAA414603A802F05CF948B10C287F
:1059200004D134F8D41F41F00301218019B0BDE83F
:10593000F08F9DF8081000263046491E0BF09CF8A9
:10594000DFF85080C5B20DF12C096FF0540B00BF89
:1059500019F805709DF808006D1CB5FBF0F100FB0F
:105960001150C5B207EB4700062354F82010D8F8B1
:1059700010C05A460120E04718B18AF80070002094
:10598000D4E7761CF6B2102EE2D30D20CEE700004D
:1059900060290020701A01002DE9F0432F4D0446C4
:1059A00090F90160476868688BB08946804718B1F4
:1059B00000200BB0BDE8F083A07C50B9207800EB4C
:1059C0004001274850F8217000EB8100406800B189
:1059D00007462448E96810F90680384688470020C1
:1059E0004FF0010C072E20D0617C0690CDE908C154
:1059F00007902189012789B2CDE90210082105907D
:105A00000490CDE90001A178AC693B46424660466E
:105A1000A04714486A6D0830805D0D30C1B2384629
:105A2000904789F800600120C3E7617C06900790E9
:105A3000CDE908012189002789B2CDE902100522AC
:105A40000949CDE900124FF47A7218FB02F2CDE950
:105A5000040C3B464CF25031AC69D9E7701A010096
:105A60008C280020F01101008545010070B5054625
:105A70000724406808F092FA00B9062495F900005E
:105A80000722002102F097F908B904F0FD0495F906
:105A900001000722002102F08EF908B904F0FB048E
:105AA000204670BD38B5016900910378427803EB58
:105AB0004304074B03EB8404647A04EB840403EB94
:105AC0008404D0E9021304F1C00002F01EF938BDCD
:105AD0008C28002070B5044690F901200078124D02
